:0400000044EF00F0D9
:0600080001820EED05F07F
:100018000180D8CF03F0E8CF04F0E0CF05F0F0A0DE
:1000280018EF00F01AEF00F029EF00F00A2A050E89
:100038000A18D8A422EF00F024EF00F026EF00F011
:10004800010E0A6EF0903CEF00F0F0A22EEF00F0E7
:1000580030EF00F03CEF00F00A060A50D8A437EF62
:1000680000F039EF00F03BEF00F0030E0A6EF0925B
:1000780005C0E0FF04C0E8FF03C0D8FF01901000EE
:04008800D8EF05F0B8
:1008000000436F6E74726F6C652041626572746F25
:1008100020004C6967612056656E74696C61646F75
:10082000722000436F6E74726F6C6520466563685A
:0F08300061646F005445535445204C434400000D
:100840000F0EC16E070EB46E938093829384929ABA
:10085000929694929494F19E966A956A070ECA6E47
:10086000CB680C0EBD6EBF0EBE6EBD98BD9AD08E0D
:10087000F28CF288F292F086F090F09CF088F09280
:10088000F09EF28CF28E280E97EC04F0010EB9EC7B
:1008900005F0680E086EE40EE82EFED7082EFCD791
:1008A00000D0800EB9EC05F0340E076E33EC05F085
:1008B0000400809A8086C00EB9EC05F072EF04F057
:1008C000010E076E33EC05F081EF04F0230E076E86
:1008D00033EC05F081EF04F0120E076E33EC05F0F7
:1008E00081EF04F00A50010AD8B460EF04F0030A63
:1008F000D8B466EF04F0010AD8B46CEF04F081EFCD
:1009000004F0096A410E086EEE0EE82EFED7082E9E
:10091000FCD700D0092A310E096491EF04F093EF5F
:1009200004F082EF04F058EF04F044EF00F0076E9B
:100930000F0E83160F0E95169694969096928D94A0
:100940008D908D92F5EC05F0300EB9EC05F0ECECE5
:1009500005F0ECEC05F0300EB9EC05F0ECEC05F030
:10096000ECEC05F0320EB9EC05F057EC05F000099F
:10097000D8A4BDEF04F0BFEF04F0B5EF04F057ECDE
:1009800005F00009D8A4C7EF04F0C9EF04F0BFEFE9
:1009900004F00750B9EC05F057EC05F00009D8A4B5
:1009A000D4EF04F0D6EF04F0CCEF04F0080EB9EC6D
:1009B00005F057EC05F00009D8A4E1EF04F0E3EFEF
:1009C00004F0D9EF04F00F0EB9EC05F057EC05F088
:1009D0000009D8A4EEEF04F0F0EF04F0E6EF04F025
:1009E000010EB9EC05F057EC05F00009D8A4FBEFB7
:1009F00004F0FDEF04F0F3EF04F0040EB9EC05F0A1
:100A000057EC05F00009D8A408EF05F00AEF05F04F
:100A100000EF05F0800E7AEC05F0120006009E94BF
:100A20008BA415EF05F019EF05F0026A022A1AEF00
:100A300005F0026A024602468B500218FB0B0218B0
:100A40008B6E0A50010AD8B430EF05F0030AD8B40F
:100A500030EF05F0010AD8B430EF05F030EF05F0C3
:100A6000F2920192110048EF05F057EC05F00009F1
:100A7000D8A43DEF05F03FEF05F035EF05F007C0D6
:100A8000F6FF080EF76E0800F5509AEC05F0072AFD
:100A900007C0F6FF080EF76E0800F5500009D8A44D
:100AA00054EF05F056EF05F035EF05F012008D8498
:100AB0008D90FDEC05F08D82FDEC05F083AE63EFCB
:100AC00005F065EF05F070EF05F08D92FDEC05F097
:100AD0008D82FDEC05F08D928D94010E79EF05F07D
:100AE0008D92FDEC05F08D82FDEC05F08D928D94DC
:100AF000000E1200066E0F0E95160F0E831606508E
:100B00008009F00B83128D948D90FDEC05F08D82A1
:100B1000FDEC05F08D920F0E83160638F00BF00BEE
:100B20008312FDEC05F08D82FDEC05F08D92F00E48
:100B300095121200066E0F0E95160F0E83160650B4
:100B4000F00B83128D808D94FDEC05F08D82FDEC11
:100B500005F08D920F0E83160638F00BF00B831202
:100B6000FDEC05F08D82FDEC05F08D92F00E9512F6
:100B70001200066E0F0E95160F0E83160650F00B20
:100B800083128D948D90FDEC05F08D82FDEC05F0C7
:100B90008D920F0E83160638F00BF00B8312FDECCE
:100BA00005F08D82FDEC05F08D92F00E951212008D
:100BB000040EF66E0C0EF76E000EF86E0900F5CFFF
:100BC0000AF00900F5CF0BF00C6A01900192000EBB
:100BD000F86E000120EF04F0210E066E760EE82E6E
:100BE000FED7062EFCD700D01200620E066E660EEF
:100BF000E82EFED7062EFCD71200210EE82EFED7D7
:060C000000001200010CCF
:020000040020DA
:08000000FFFFFFFFFFFFFFFF00
:020000040030CA
:0E000000000C1F13FF8181FF0FC00FE00F40A7
:00000001FF
